{
  "contractName": "P172",
  "abi": [
    {
      "inputs": [],
      "stateMutability": "nonpayable",
      "type": "constructor"
    },
    {
      "inputs": [],
      "name": "getDescription",
      "outputs": [
        {
          "internalType": "string",
          "name": "",
          "type": "string"
        }
      ],
      "stateMutability": "view",
      "type": "function",
      "constant": true
    }
  ],
  "bytecode": "0x608060405234801561001057600080fd5b50336000806101000a81548173ffffffffffffffffffffffffffffffffffffffff021916908373ffffffffffffffffffffffffffffffffffffffff1602179055506040518060c00160405280609581526020016102e1609591396001908051906020019061007f929190610085565b5061012a565b828054600181600116156101000203166002900490600052602060002090601f016020900481019282601f106100c657805160ff19168380011785556100f4565b828001600101855582156100f4579182015b828111156100f35782518255916020019190600101906100d8565b5b5090506101019190610105565b5090565b61012791905b8082111561012357600081600090555060010161010b565b5090565b90565b6101a8806101396000396000f3fe608060405234801561001057600080fd5b5060043610610048576000357c0100000000000000000000000000000000000000000000000000000000900480631a0925411461004d575b600080fd5b6100556100d0565b6040518080602001828103825283818151815260200191508051906020019080838360005b8381101561009557808201518184015260208101905061007a565b50505050905090810190601f1680156100c25780820380516001836020036101000a031916815260200191505b509250505060405180910390f35b606060018054600181600116156101000203166002900480601f0160208091040260200160405190810160405280929190818152602001828054600181600116156101000203166002900480156101685780601f1061013d57610100808354040283529160200191610168565b820191906000526020600020905b81548152906001019060200180831161014b57829003601f168201915b505050505090509056fea26469706673582212206ad3734673b5e8b90ac0fad3390a59dfb377118af826c490240e513a3eef32d564736f6c634300060b003350313732207061726920616363657074c3a920706f757220756e206d61676e756d206465206368616d7061676e652c207175652027656e2032303237207072657371756520746f7573206c6573206f66666963657320646520627265766574206475206d6f6e6465207574696c697365726f6e74206c6120626c6f636b636861696e272c2041424c206f75692c204a4752206e6f6e",
  "immutableReferences": {},
  "source": "// SPDX-License-Identifier: MIT\npragma solidity >=0.4.22 <0.9.0;\n\ncontract P172 {\n  address owner;\n  string description;\n\n  constructor() public {\n     owner = msg.sender;\n     description = \"P172 pari accepté pour un magnum de champagne, que 'en 2027 presque tous les offices de brevet du monde utiliseront la blockchain', ABL oui, JGR non\";\n  }\n\n  function getDescription() public view returns (string memory) {\n    return description;\n  }\n}\n",
  "sourcePath": "C:/Appli.crypto/P172/contracts/P172.sol",
  "compiler": {
    "name": "solc",
    "version": "0.6.11+commit.5ef660b1.Emscripten.clang"
  },
  "schemaVersion": "3.4.1",
  "updatedAt": "2021-07-09T17:46:36.324Z",
  "networkType": "ethereum",
  "devdoc": {
    "kind": "dev",
    "methods": {},
    "version": 1
  },
  "userdoc": {
    "kind": "user",
    "methods": {},
    "version": 1
  }
}